{
  "_format": "hh-sol-artifact-1",
  "contractName": "CoffeePortal",
  "sourceName": "contracts/CoffeePortal.sol",
  "abi": [
    {
      "inputs": [],
      "stateMutability": "payable",
      "type": "constructor"
    },
    {
      "anonymous": false,
      "inputs": [
        {
          "indexed": true,
          "internalType": "address",
          "name": "from",
          "type": "address"
        },
        {
          "indexed": false,
          "internalType": "uint256",
          "name": "timestamp",
          "type": "uint256"
        },
        {
          "indexed": false,
          "internalType": "string",
          "name": "message",
          "type": "string"
        },
        {
          "indexed": false,
          "internalType": "string",
          "name": "name",
          "type": "string"
        }
      ],
      "name": "NewCoffee",
      "type": "event"
    },
    {
      "inputs": [
        {
          "internalType": "string",
          "name": "_message",
          "type": "string"
        },
        {
          "internalType": "string",
          "name": "_name",
          "type": "string"
        }
      ],
      "name": "buyCoffee",
      "outputs": [],
      "stateMutability": "payable",
      "type": "function"
    },
    {
      "inputs": [],
      "name": "getAllCoffee",
      "outputs": [
        {
          "components": [
            {
              "internalType": "address",
              "name": "sender",
              "type": "address"
            },
            {
              "internalType": "string",
              "name": "message",
              "type": "string"
            },
            {
              "internalType": "string",
              "name": "name",
              "type": "string"
            },
            {
              "internalType": "uint256",
              "name": "timestamp",
              "type": "uint256"
            }
          ],
          "internalType": "struct CoffeePortal.Coffee[]",
          "name": "",
          "type": "tuple[]"
        }
      ],
      "stateMutability": "view",
      "type": "function"
    },
    {
      "inputs": [],
      "name": "getTotalCoffee",
      "outputs": [
        {
          "internalType": "uint256",
          "name": "",
          "type": "uint256"
        }
      ],
      "stateMutability": "view",
      "type": "function"
    },
    {
      "inputs": [],
      "name": "owner",
      "outputs": [
        {
          "internalType": "address payable",
          "name": "",
          "type": "address"
        }
      ],
      "stateMutability": "view",
      "type": "function"
    }
  ],
  "bytecode": "0x608060405233600160006101000a81548173ffffffffffffffffffffffffffffffffffffffff021916908373ffffffffffffffffffffffffffffffffffffffff160217905550610d3d806100546000396000f3fe60806040526004361061003f5760003560e01c8063204206e1146100445780634839ee3f146100605780638da5cb5b1461008b578063d386beca146100b6575b600080fd5b61005e60048036038101906100599190610766565b6100e1565b005b34801561006c57600080fd5b50610075610357565b60405161008291906107f7565b60405180910390f35b34801561009757600080fd5b506100a0610360565b6040516100ad9190610853565b60405180910390f35b3480156100c257600080fd5b506100cb610386565b6040516100d89190610a52565b60405180910390f35b662386f26fc10000341461012a576040517f08c379a000000000000000000000000000000000000000000000000000000000815260040161012190610ad1565b60405180910390fd5b600160008082825461013c9190610b20565b92505081905550600260405180608001604052803373ffffffffffffffffffffffffffffffffffffffff16815260200184815260200183815260200142815250908060018154018082558091505060019003906000526020600020906004020160009091909190915060008201518160000160006101000a81548173ffffffffffffffffffffffffffffffffffffffff021916908373ffffffffffffffffffffffffffffffffffffffff1602179055506020820151816001019080519060200190610208929190610569565b506040820151816002019080519060200190610225929190610569565b506060820151816003015550506000600160009054906101000a900473ffffffffffffffffffffffffffffffffffffffff1673ffffffffffffffffffffffffffffffffffffffff163460405161027a90610ba7565b60006040518083038185875af1925050503d80600081146102b7576040519150601f19603f3d011682016040523d82523d6000602084013e6102bc565b606091505b5050905080610300576040517f08c379a00000000000000000000000000000000000000000000000000000000081526004016102f790610c08565b60405180910390fd5b3373ffffffffffffffffffffffffffffffffffffffff167f5d202edb9ac9aca913189e3c829f7fdbba23859e91379c70ecf7874fe39632a742858560405161034a93929190610c61565b60405180910390a2505050565b60008054905090565b600160009054906101000a900473ffffffffffffffffffffffffffffffffffffffff1681565b60606002805480602002602001604051908101604052809291908181526020016000905b8282101561056057838290600052602060002090600402016040518060800160405290816000820160009054906101000a900473ffffffffffffffffffffffffffffffffffffffff1673ffffffffffffffffffffffffffffffffffffffff1673ffffffffffffffffffffffffffffffffffffffff16815260200160018201805461043390610cd5565b80601f016020809104026020016040519081016040528092919081815260200182805461045f90610cd5565b80156104ac5780601f10610481576101008083540402835291602001916104ac565b820191906000526020600020905b81548152906001019060200180831161048f57829003601f168201915b505050505081526020016002820180546104c590610cd5565b80601f01602080910402602001604051908101604052809291908181526020018280546104f190610cd5565b801561053e5780601f106105135761010080835404028352916020019161053e565b820191906000526020600020905b81548152906001019060200180831161052157829003601f168201915b50505050508152602001600382015481525050815260200190600101906103aa565b50505050905090565b82805461057590610cd5565b90600052602060002090601f01602090048101928261059757600085556105de565b82601f106105b057805160ff19168380011785556105de565b828001600101855582156105de579182015b828111156105dd5782518255916020019190600101906105c2565b5b5090506105eb91906105ef565b5090565b5b808211156106085760008160009055506001016105f0565b5090565b6000604051905090565b600080fd5b600080fd5b600080fd5b600080fd5b6000601f19601f8301169050919050565b7f4e487b7100000000000000000000000000000000000000000000000000000000600052604160045260246000fd5b6106738261062a565b810181811067ffffffffffffffff821117156106925761069161063b565b5b80604052505050565b60006106a561060c565b90506106b1828261066a565b919050565b600067ffffffffffffffff8211156106d1576106d061063b565b5b6106da8261062a565b9050602081019050919050565b82818337600083830152505050565b6000610709610704846106b6565b61069b565b90508281526020810184848401111561072557610724610625565b5b6107308482856106e7565b509392505050565b600082601f83011261074d5761074c610620565b5b813561075d8482602086016106f6565b91505092915050565b6000806040838503121561077d5761077c610616565b5b600083013567ffffffffffffffff81111561079b5761079a61061b565b5b6107a785828601610738565b925050602083013567ffffffffffffffff8111156107c8576107c761061b565b5b6107d485828601610738565b9150509250929050565b6000819050919050565b6107f1816107de565b82525050565b600060208201905061080c60008301846107e8565b92915050565b600073ffffffffffffffffffffffffffffffffffffffff82169050919050565b600061083d82610812565b9050919050565b61084d81610832565b82525050565b60006020820190506108686000830184610844565b92915050565b600081519050919050565b600082825260208201905092915050565b6000819050602082019050919050565b60006108a582610812565b9050919050565b6108b58161089a565b82525050565b600081519050919050565b600082825260208201905092915050565b60005b838110156108f55780820151818401526020810190506108da565b83811115610904576000848401525b50505050565b6000610915826108bb565b61091f81856108c6565b935061092f8185602086016108d7565b6109388161062a565b840191505092915050565b61094c816107de565b82525050565b600060808301600083015161096a60008601826108ac565b5060208301518482036020860152610982828261090a565b9150506040830151848203604086015261099c828261090a565b91505060608301516109b16060860182610943565b508091505092915050565b60006109c88383610952565b905092915050565b6000602082019050919050565b60006109e88261086e565b6109f28185610879565b935083602082028501610a048561088a565b8060005b85811015610a405784840389528151610a2185826109bc565b9450610a2c836109d0565b925060208a01995050600181019050610a08565b50829750879550505050505092915050565b60006020820190508181036000830152610a6c81846109dd565b905092915050565b600082825260208201905092915050565b7f596f75206e65656420746f2070617920302e3031204554480000000000000000600082015250565b6000610abb601883610a74565b9150610ac682610a85565b602082019050919050565b60006020820190508181036000830152610aea81610aae565b9050919050565b7f4e487b7100000000000000000000000000000000000000000000000000000000600052601160045260246000fd5b6000610b2b826107de565b9150610b36836107de565b9250827fffffffffffffffffffffffffffffffffffffffffffffffffffffffffffffffff03821115610b6b57610b6a610af1565b5b828201905092915050565b600081905092915050565b50565b6000610b91600083610b76565b9150610b9c82610b81565b600082019050919050565b6000610bb282610b84565b9150819050919050565b7f4661696c656420746f2073656e6420457468657220746f206f776e6572000000600082015250565b6000610bf2601d83610a74565b9150610bfd82610bbc565b602082019050919050565b60006020820190508181036000830152610c2181610be5565b9050919050565b6000610c33826108bb565b610c3d8185610a74565b9350610c4d8185602086016108d7565b610c568161062a565b840191505092915050565b6000606082019050610c7660008301866107e8565b8181036020830152610c888185610c28565b90508181036040830152610c9c8184610c28565b9050949350505050565b7f4e487b7100000000000000000000000000000000000000000000000000000000600052602260045260246000fd5b60006002820490506001821680610ced57607f821691505b60208210811415610d0157610d00610ca6565b5b5091905056fea2646970667358221220ae9fc5cd06a81e142efd0aac58aee2c15f40bef9e00b42258f35406a3a3096a264736f6c63430008090033",
  "linkReferences": {},
  "deployedLinkReferences": {}
}